:100000000C942A000C943C000C943C000C943C0092
:100010000C943C000C943C000C943C000C943C0070
:100020000C943C000C943C000C943C000C943C0060
:100030000C943C000C943C000C943C000C943C0050
:100040000C943C000C943C000C943C000C943C0040
:100050000C943C0011241FBECFE5D8E0DEBFCDBF1D
:1000600010E0A0E6B0E001C01D92A336B107E1F7B1
:100070000E9494050C94CC050C940000DF93CF9360
:1000800000D000D000D0CDB7DEB78A836B834C831D
:100090008A81843008F0EEC08B81883008F0EAC095
:1000A0008C81882321F08C81813009F0E3C081E0CC
:1000B00089838A81282F30E03E832D838D819E8124
:1000C0008130910509F447C02D813E8122303105F0
:1000D0002CF48D819E81009771F0CDC02D813E81E1
:1000E0002230310509F467C08D819E8183309105EE
:1000F00009F491C0C0C08C818823A9F4AAE3B0E0C0
:10010000EAE3F0E08081482F8B81282F30E081E006
:1001100090E0022E02C0880F991F0A94E2F78095A2
:1001200084238C93A8C08C81813009F0A4C0AAE3F9
:10013000B0E0EAE3F0E08081482F8B81282F30E0A7
:1001400081E090E0022E02C0880F991F0A94E2F726
:10015000842B8C9390C08C818823A9F4A7E3B0E012
:10016000E7E3F0E08081482F8B81282F30E081E0A9
:1001700090E0022E02C0880F991F0A94E2F7809542
:1001800084238C9378C08C81813009F074C0A7E3FC
:10019000B0E0E7E3F0E08081482F8B81282F30E04A
:1001A00081E090E0022E02C0880F991F0A94E2F7C6
:1001B000842B8C9360C08C818823A9F4A4E3B0E0E5
:1001C000E4E3F0E08081482F8B81282F30E081E04C
:1001D00090E0022E02C0880F991F0A94E2F78095E2
:1001E00084238C9348C08C81813009F044C0A4E3FF
:1001F000B0E0E4E3F0E08081482F8B81282F30E0ED
:1002000081E090E0022E02C0880F991F0A94E2F765
:10021000842B8C9330C08C818823A9F4A1E3B0E0B7
:10022000E1E3F0E08081482F8B81282F30E081E0EE
:1002300090E0022E02C0880F991F0A94E2F7809581
:1002400084238C9318C08C818130A9F4A1E3B0E0A1
:10025000E1E3F0E08081482F8B81282F30E081E0BE
:1002600090E0022E02C0880F991F0A94E2F7842BB7
:100270008C9301C01982898126960FB6F894DEBF4F
:100280000FBECDBFCF91DF910895DF93CF9300D004
:1002900000D00F92CDB7DEB78A836B8381E089836C
:1002A0008A81843010F0198232C08A81282F30E090
:1002B0003D832C838C819D8181309105D1F02C81EF
:1002C0003D81223031052CF48C819D81009761F0B5
:1002D0001EC02C813D812230310581F08C819D81B1
:1002E0008330910581F013C0EAE3F0E08B818083D5
:1002F0000EC0E7E3F0E08B81808309C0E4E3F0E027
:100300008B81808304C0E1E3F0E08B81808389816D
:100310000F900F900F900F900F90CF91DF91089555
:10032000DF93CF9300D000D000D0CDB7DEB78A8363
:100330006B834C8381E089838A81843048F48B818C
:10034000883030F48C81813029F08C81882311F041
:100350001982E0C08A81282F30E03E832D838D8171
:100360009E818130910509F447C02D813E81223064
:1003700031052CF48D819E81009771F0CBC02D81C9
:100380003E812230310509F467C08D819E81833022
:10039000910509F491C0BEC08C818823A9F4ABE318
:1003A000B0E0EBE3F0E08081482F8B81282F30E034
:1003B00081E090E0022E02C0880F991F0A94E2F7B4
:1003C000809584238C93A6C08C81813009F0A2C0D3
:1003D000ABE3B0E0EBE3F0E08081482F8B81282F86
:1003E00030E081E090E0022E02C0880F991F0A944D
:1003F000E2F7842B8C938EC08C818823A9F4A8E328
:10040000B0E0E8E3F0E08081482F8B81282F30E0D6
:1004100081E090E0022E02C0880F991F0A94E2F753
:10042000809584238C9376C08C81813009F072C0D2
:10043000A8E3B0E0E8E3F0E08081482F8B81282F2B
:1004400030E081E090E0022E02C0880F991F0A94EC
:10045000E2F7842B8C935EC08C818823A9F4A5E3FA
:10046000B0E0E5E3F0E08081482F8B81282F30E079
:1004700081E090E0022E02C0880F991F0A94E2F7F3
:10048000809584238C9346C08C81813009F042C0D2
:10049000A5E3B0E0E5E3F0E08081482F8B81282FD1
:1004A00030E081E090E0022E02C0880F991F0A948C
:1004B000E2F7842B8C932EC08C818823A9F4A2E3CD
:1004C000B0E0E2E3F0E08081482F8B81282F30E01C
:1004D00081E090E0022E02C0880F991F0A94E2F793
:1004E000809584238C9316C08C81813099F4A2E38B
:1004F000B0E0E2E3F0E08081482F8B81282F30E0EC
:1005000081E090E0022E02C0880F991F0A94E2F762
:10051000842B8C93898126960FB6F894DEBF0FBE8C
:10052000CDBFCF91DF910895DF93CF9300D000D05E
:100530000F92CDB7DEB78A836B8381E089838A818E
:10054000843010F0198232C08A81282F30E03D8338
:100550002C838C819D8181309105D1F02C813D814E
:10056000223031052CF48C819D81009761F01EC0F2
:100570002C813D812230310581F08C819D81833039
:10058000910581F013C0EBE3F0E08B8180830EC016
:10059000E8E3F0E08B81808309C0E5E3F0E08B8144
:1005A000808304C0E2E3F0E08B81808389810F9037
:1005B0000F900F900F900F90CF91DF910895DF93E0
:1005C000CF9300D000D000D0CDB7DEB78B838B8126
:1005D0008430A8F58B81282F30E03E832D838D81D8
:1005E0009E8181309105D1F02D813E8122303105EF
:1005F0002CF48D819E81009761F01EC02D813E817B
:100600002230310581F08D819E818330910581F00A
:1006100013C0E9E3F0E080818A830EC0E6E3F0E0F6
:1006200080818A8309C0E3E3F0E080818A8304C08B
:10063000E0E3F0E080818A839A819C8303C0198281
:1006400029812C838C8126960FB6F894DEBF0FBECD
:10065000CDBFCF91DF910895DF93CF93CDB7DEB7B4
:1006600027970FB6F894DEBF0FBECDBF8B836C8388
:1006700081E08A838B81843008F070C08C8188305F
:1006800008F06CC081E08A838B81282F30E03F83A3
:100690002E834E815F814130510541F18E819F81D2
:1006A0008230910534F42E813F812115310561F0AE
:1006B00052C04E815F814230510551F18E819F8140
:1006C00083309105B9F147C0E9E3F0E08081282F3C
:1006D00030E08C81882F90E0A90102C055954795A4
:1006E0008A95E2F7CA018170898335C0E6E3F0E0BC
:1006F0008081282F30E08C81882F90E0A90102C0F2
:10070000559547958A95E2F7CA018170898323C080
:10071000E3E3F0E08081282F30E08C81882F90E0A7
:10072000A90102C0559547958A95E2F7CA018170E3
:10073000898311C0E0E3F0E08081282F30E08C81D4
:10074000882F90E0A90102C0559547958A95E2F758
:10075000CA018170898359815D8303C01A828A81AD
:100760008D838D8127960FB6F894DEBF0FBECDBF67
:10077000CF91DF910895DF93CF9300D000D0CDB714
:10078000DEB789836A83E3E5F0E099818A81892B6A
:1007900080838981282F30E03C832B838B819C814F
:1007A000009731F02B813C812830310581F01EC04B
:1007B000A9E5B0E0E9E5F0E0808181608C93A9E5EE
:1007C000B0E0E9E5F0E080818D7F8C9324C0A9E55D
:1007D000B0E0E9E5F0E080818E7F8C93A9E5B0E0A0
:1007E000E9E5F0E0808182608C9315C0A9E5B0E076
:1007F000E9E5F0E080818E7F8C93A9E5B0E0E9E542
:10080000F0E080818D7F8C93A3E5B0E0E3E5F0E03C
:10081000808180628C930F900F900F900F90CF91FA
:10082000DF910895DF93CF930F92CDB7DEB7898321
:10083000E2E5F0E0898180830F90CF91DF91089508
:10084000DF93CF930F92CDB7DEB78983ECE5F0E06D
:10085000898180830F90CF91DF910895DF93CF93AB
:10086000CDB7DEB7E2E5F0E08081CF91DF9108956A
:10087000DF93CF9300D00F92CDB7DEB78983898104
:10088000282F30E03B832A838A819B81009731F0B7
:100890002A813B812130310549F00FC0AEE4B0E040
:1008A000EEE4F0E0808180648C9307C0AEE4B0E0B9
:1008B000EEE4F0E080818F7B8C930F900F900F908F
:1008C000CF91DF910895DF93CF93CDB7DEB7279710
:1008D0000FB6F894DEBF0FBECDBF89836A834B830A
:1008E0008981282F30E03F832E838E819F8100975E
:1008F00031F02E813F812130310559F163C0EEE4A2
:10090000F0E08A81808381E00E943804AFE4B0E0A7
:10091000EFE4F0E080818C93A9E5B0E0E9E5F0E058
:10092000808184608C93A9E5B0E0E9E5F0E0808106
:10093000877F8C93A9E5B0E0E9E5F0E080818F7EC8
:100940008C93A9E5B0E0E9E5F0E0808180628C93CA
:1009500039C0A9E5B0E0E9E5F0E080818B7F8C93B8
:10096000A9E5B0E0E9E5F0E08081877F8C93A9E517
:10097000B0E0E9E5F0E080818F7E8C93A9E5B0E0FE
:10098000E9E5F0E080818F7D8C93EEE4F0E08A81F0
:10099000886180838B81282F30E03D832C838C817C
:1009A0009D81009731F02C813D812130310531F05E
:1009B00009C0EFE4F0E082E8808304C0EFE4F0E0F7
:1009C00082E2808327960FB6F894DEBF0FBECDBFBC
:1009D000CF91DF910895DF93CF9300D000D00F9295
:1009E000CDB7DEB789837B836A838981282F30E086
:1009F0003D832C838C819D81009731F02C813D813A
:100A00002130310541F00DC0EAE4F0E08A819B819C
:100A10009183808306C0E8E4F0E08A819B81918322
:100A200080830F900F900F900F900F90CF91DF91D8
:100A30000895DF93CF9300D0CDB7DEB79A83898333
:100A4000E6E4F0E089819A81918380830F900F9092
:100A5000CF91DF910895DF93CF93CDB7DEB7E6E472
:100A6000F0E080819181CF91DF910895DF93CF9362
:100A7000CDB7DEB7AAE2B0E0EAE2F0E080818061C3
:100A80008C93AAE2B0E0EAE2F0E0808188608C9387
:100A9000A0E4B0E0E0E4F0E0808180688C93AAE21A
:100AA000B0E0EAE2F0E080818B7F8C93A0E4B0E0DC
:100AB000E0E4F0E0808184608C93A0E4B0E0E0E4C6
:100AC000F0E0808182608C93E9E2F0E083E3808350
:100AD000CF91DF910895DF93CF930F92CDB7DEB71B
:100AE0008983EBE2F0E08081829586958770882F7C
:100AF00090E0817090700097A1F3ECE2F0E08981C2
:100B000080830F90CF91DF910895DF93CF93CDB77E
:100B1000DEB7EBE2F0E080818823DCF7ECE2F0E086
:100B20008081CF91DF910895DF93CF930F92CDB75E
:100B3000DEB70E94360581E063E041E00E943E009E
:100B400080E00E94200488E462E00E94BB030E94CF
:100B500085058093600080916000807C80936200B6
:100B6000809160008F738093610080916200803C6F
:100B700081F480916100882F90E0009739F40E9401
:100B80008505898389810E942004E1CF0E94850523
:0C0B9000DECF0E948505DBCFF894FFCF7C
:00000001FF
