:100000000C942A000C9400140C94D6140C94470001
:100010000C9447000C9447000C9447000C94470044
:100020000C9447000C9447000C9447000C94470034
:100030000C9447000C9447000C9447000C94470024
:100040000C9447000C9447000C9447000C94470014
:100050000C94470011241FBECFE5D8E0DEBFCDBF12
:1000600011E0A0E6B0E0E8E1FCE202C005900D92EC
:10007000A23AB107D9F711E0A2EAB1E001C01D929E
:10008000A63AB107E1F70E9410130C940A160C94DB
:100090000000EF92FF920F931F937B018C0120E0F1
:1000A00030E040E05FE40E94F50388238CF0C80153
:1000B000B70120E030E040E05FE40E94C1010E940F
:1000C00055049B01AC01205030404040504806C0D0
:1000D000C801B7010E9455049B01AC01B901CA01D6
:1000E0001F910F91FF90EF900895A0E0B0E0EBE733
:1000F000F0E00C94D315DC012B01FA019C919230B5
:1001000008F439C1EB018881823008F433C194309E
:1001100069F4843009F02FC111969C91119789815F
:10012000981709F428C1A5E9B0E025C1843009F485
:1001300021C18230A9F4923009F01DC19A01AD01AC
:1001400088E0EA010990AE01E90109929E0181501F
:10015000C1F7E201898111969C918923818308C1AD
:10016000923009F407C112962D903C901397EB0141
:100170008A819B811496AD90BD90CD90DC901797AD
:10018000EC80FD800E811F819101281B390BB90184
:1001900037FF04C066277727621B730B6032710537
:1001A0000CF061C0121613066CF537014801062EDB
:1001B00004C096948794779467940A94D2F721E0C8
:1001C00030E040E050E004C0220F331F441F551FB1
:1001D0006A95D2F721503040404050402E213F21B7
:1001E00040235123211531054105510521F021E01E
:1001F00030E040E050E079018A01E628F72808293C
:1002000019293CC0232BD1F1260E371E350146019A
:10021000062E04C096948794779467940A94D2F734
:1002200021E030E040E050E004C0220F331F441FC3
:10023000551F6A95D2F721503040404050402A2146
:100240003B214C215D21211531054105510521F04E
:1002500021E030E040E050E059016A01A628B728CB
:10026000C828D9280BC0821593052CF01C01AA249C
:10027000BB24650103C0EE24FF24870111969C91E5
:10028000D20111968C91981709F445C0992339F041
:10029000A80197012A193B094C095D0906C0A6016E
:1002A00095012E193F09400B510B57FD08C01182D3
:1002B0003382228224833583468357831DC081E0A5
:1002C00081833382228288279927DC01821B930B4A
:1002D000A40BB50B84839583A683B7830DC0220F2F
:1002E000331F441F551F24833583468357838281E0
:1002F000938101979383828324813581468157813D
:10030000DA01C9010197A109B1098F5F9F4FAF4F72
:10031000BF4328F30BC0918333822282EA0CFB1C7B
:100320000C1D1D1DE482F5820683178383E0808304
:10033000248135814681578157FF1AC0C901AA27F8
:1003400097FDA095BA2F81709070A070B0705695EF
:10035000479537952795822B932BA42BB52B848318
:100360009583A683B7838281938101969383828349
:10037000DF0101C0D201CD01CDB7DEB7E2E10C94BF
:10038000EF15A0E2B0E0E7ECF1E00C94DF15698333
:100390007A838B839C832D833E834F835887E9E048
:1003A000EE2EF12CEC0EFD1ECE010196B7010E943F
:1003B00046068E010F5E1F4FCE010596B8010E94C2
:1003C00046068A8991E089278A8BC701B801AE0168
:1003D000475E5F4F0E9475000E947105A096E6E09F
:1003E0000C94FB15A0E2B0E0E8EFF1E00C94DF150F
:1003F00069837A838B839C832D833E834F835887C5
:10040000F9E0EF2EF12CEC0EFD1ECE010196B701A6
:100410000E9446068E010F5E1F4FCE010596B80161
:100420000E944606C701B801AE01475E5F4F0E94B9
:1004300075000E947105A096E6E00C94FB15A0E201
:10044000B0E0E5E2F2E00C94D31569837A838B8304
:100450009C832D833E834F835887CE010196BE0136
:10046000675F7F4F0E944606CE010596BE016F5E14
:100470007F4F0E9446069985923088F089898230A4
:10048000C8F0943019F4823051F404C0843029F457
:10049000923081F485E990E0C6C0923049F420E0C2
:1004A0009A858A89981321E02A87CE010996BBC0D4
:1004B000823049F420E09A858A89981321E02A8BBA
:1004C000CE014196B0C02D843E844F8458886D88FB
:1004D0007E888F88988CEE24FF248701AA24BB2471
:1004E000650140E050E060E070E0E0E0F0E0C10174
:1004F00081709070892BE9F0E60CF71C081D191D1E
:100500009A01AB012A0D3B1D4C1D5D1D80E090E062
:10051000A0E0B0E0E614F7040805190520F481E036
:1005200090E0A0E0B0E0BA01A901480F591F6A1F8E
:100530007B1FAA0CBB1CCC1CDD1C97FE08C081E0F5
:1005400090E0A0E0B0E0A82AB92ACA2ADB2A3196B6
:10055000E032F10549F0660C771C881C991C569412
:10056000479437942794C3CFFA85EA892B893C892D
:100570008B859C85280F391F2E5F3F4F17C0CA01FE
:1005800081709070892B61F016950795F794E79428
:1005900080E090E0A0E0B0E8E82AF92A0A2B1B2BC3
:1005A00076956795579547952F5F3F4F77FDE7CF36
:1005B0000CC0440F551F661F771F17FD4160EE0CDE
:1005C000FF1C001F111F21503040403090E05907A0
:1005D00090E0690790E4790760F32B8F3C8FDB0193
:1005E000CA018F779070A070B07080349105A1051A
:1005F000B10561F447FD0AC0E114F10401051105DC
:1006000029F0405C5F4F6F4F7F4F40781A8EFE1786
:1006100011F081E08A8F4D8F5E8F6F8F78A383E01A
:10062000898FCE0149960E947105A096E2E10C9453
:10063000EF15A8E1B0E0EFE1F3E00C94DB1569837E
:100640007A838B839C832D833E834F835887B9E0C5
:10065000EB2EF12CEC0EFD1ECE010196B7010E948F
:1006600046068E010F5E1F4FCE010596B8010E940F
:1006700046062985223008F47EC03989323010F4CC
:10068000B8017CC08A859A8989278A87243011F02D
:10069000223031F4231709F06EC065E970E06EC0B6
:1006A000343039F41D861E861F86188A1C861B86E8
:1006B00004C0323021F484E08987B7015FC02B8504
:1006C0003C858B899C89281B390B3C872B87ED84C3
:1006D000FE840F851889AD88BE88CF88D88CEA142F
:1006E000FB040C051D0540F4EE0CFF1C001F111F40
:1006F000215030403C872B8720E030E040E050E044
:1007000080E090E0A0E0B0E460E070E0EA14FB0478
:100710000C051D0540F0282B392B4A2B5B2BEA18C2
:10072000FB080C091D09B695A79597958795EE0CC2
:10073000FF1C001F111F6F5F7F4F6F31710531F775
:10074000DA01C9018F779070A070B0708034910584
:10075000A105B10561F427FD0AC0E114F10401050A
:10076000110529F0205C3F4F4F4F5F4F20782D87B8
:100770003E874F87588BBE01675F7F4FCB010E943A
:1007800071056896EAE00C94F715A8E1B0E0EBEC8F
:10079000F3E00C94DF1569837A838B839C832D832C
:1007A0003E834F83588789E0E82EF12CEC0EFD1E26
:1007B000CE010196B7010E9446068E010F5E1F4FC3
:1007C000CE010596B8010E9446068985823040F028
:1007D0008989823028F0C701B8010E94BE0601C095
:1007E0008FEF6896E6E00C94FB15A8E1B0E0EBEF24
:1007F000F3E00C94DF1569837A838B839C832D83CC
:100800003E834F83588789E0E82EF12CEC0EFD1EC5
:10081000CE010196B7010E9446068E010F5E1F4F62
:10082000CE010596B8010E9446068985823040F0C7
:100830008989823028F0C701B8010E94BE0601C034
:100840008FEF6896E6E00C94FB15A8E1B0E0EBE2D0
:10085000F4E00C94DF1569837A838B839C832D836A
:100860003E834F83588789E0E82EF12CEC0EFD1E65
:10087000CE010196B7010E9446068E010F5E1F4F02
:10088000CE010596B8010E9446068985823040F067
:100890008989823028F0C701B8010E94BE0601C0D4
:1008A00081E06896E6E00C94FB15ACE0B0E0EBE587
:1008B000F4E00C94E31569837A838B839C83CE01E7
:1008C0000196BE016B5F7F4F0E9446068D8182308C
:1008D00061F1823050F1843021F48E81882351F10E
:1008E0002EC02F81388537FD20C06E812F31310514
:1008F0001CF06623F9F023C08EE190E0821B930B7D
:1009000029853A854B855C8504C056954795379572
:1009100027958A95D2F76623B1F05095409530958A
:1009200021953F4F4F4F5F4F0EC020E030E040E039
:1009300050E009C02FEF3FEF4FEF5FE704C020E02A
:1009400030E040E050E8B901CA012C96E2E00C9496
:10095000FF15A8E0B0E0EFEAF4E00C94DB157B01B2
:100960008C01611571058105910519F482E0898377
:1009700060C083E089838EE1C82ED12CDC82CB82DB
:10098000ED82FE820F831887C801B7010E942205FD
:10099000FC013197F7FF3BC0222733272E1B3F0B6B
:1009A00057016801022E04C0D694C794B794A79447
:1009B0000A94D2F740E050E060E070E081E090E01F
:1009C000A0E0B0E004C0880F991FAA1FBB1F2A95A2
:1009D000D2F70197A109B1098E219F21A023B1234C
:1009E0000097A105B10521F041E050E060E070E022
:1009F0004A295B296C297D294D835E836F83788723
:100A00008EE190E08E1B9F0B9C838B8312C03097EE
:100A100081F00E2E04C0EE0CFF1C001F111F0A9463
:100A2000D2F7ED82FE820F831887CE1ADF0ADC82AE
:100A3000CB821A82CE0101960E9471052896EAE0C7
:100A40000C94F715EF92FF920F931F937B018C018B
:100A500080E0E81680E0F80681E0080780E01807EB
:100A600088F48FEFE816F1040105110531F028F044
:100A700088E090E0A0E0B0E017C080E090E0A0E067
:100A8000B0E012C080E0E81680E0F80680E00807D9
:100A900081E0180728F088E190E0A0E0B0E004C011
:100AA00080E190E0A0E0B0E020E230E040E050E003
:100AB000281B390B4A0B5B0B04C016950795F7945E
:100AC000E7948A95D2F7F701E356FF4F8081281B00
:100AD000310941095109C9011F910F91FF90EF9010
:100AE0000895DF92EF92FF920F931F93FC01E48031
:100AF000F58006811781D1808081823048F480E0C2
:100B000090E0A0E1B0E0E82AF92A0A2B1B2BA5C04F
:100B1000843009F49FC0823021F4EE24FF24870141
:100B200005C0E114F1040105110519F4E0E0F0E05D
:100B300096C0628173819FEF623879070CF05BC0C9
:100B400022E83FEF261B370B2A3131052CF020E03D
:100B500030E040E050E02AC0B801A701022E04C0F6
:100B600076956795579547950A94D2F781E090E07E
:100B7000A0E0B0E004C0880F991FAA1FBB1F2A95F0
:100B8000D2F70197A109B1098E219F21A023B1239A
:100B90000097A105B10521F081E090E0A0E0B0E070
:100BA0009A01AB01282B392B4A2B5B2BDA01C901A7
:100BB0008F779070A070B07080349105A105B10559
:100BC00039F427FF09C0205C3F4F4F4F5F4F04C0EF
:100BD000215C3F4F4F4F5F4FE0E0F0E02030A0E05E
:100BE0003A07A0E04A07A0E45A0710F0E1E0F0E07D
:100BF00079018A0127C06038710564F5FB01E1586D
:100C0000FF4FD801C7018F779070A070B07080340B
:100C10009105A105B10539F4E7FE0DC080E490E02F
:100C2000A0E0B0E004C08FE390E0A0E0B0E0E80E08
:100C3000F91E0A1F1B1F17FF05C016950795F7948D
:100C4000E794319687E016950795F794E7948A958F
:100C5000D1F705C0EE24FF248701EFEFF0E06E2FFF
:100C6000679566276795902F9F77D794DD24D79453
:100C70008E2F8695492F462B582F5D29B701CA0123
:100C80001F910F91FF90EF90DF900895FC01DB0121
:100C9000408151812281622F6F7770E0221F2227CD
:100CA000221F9381892F880F822B282F30E0991FD4
:100CB0009927991F11969C93119721153105A9F534
:100CC000411551056105710511F482E037C082E8D4
:100CD0009FEF13969C938E9312979A01AB0167E056
:100CE000220F331F441F551F6A95D1F783E08C9361
:100CF0000DC0220F331F441F551F12968D919C91DA
:100D00001397019713969C938E931297203080E04F
:100D1000380780E0480780E4580758F314962D936D
:100D20003D934D935C93179708952F3F310579F4C8
:100D3000411551056105710519F484E08C930895FE
:100D400064FF03C081E08C9312C01C9210C02F5727
:100D5000304013963C932E93129783E08C9387E058
:100D6000440F551F661F771F8A95D1F7706414963C
:100D70004D935D936D937C93179708951F93DC01BA
:100D8000FB019C91923008F447C08081823008F4C6
:100D900043C0943051F411961C91843099F58181AF
:100DA000682F70E0611B71093FC0843021F09230E0
:100DB00031F48230B9F18181882389F12DC01196F7
:100DC0001C9111978230F1F081811817D9F4129695
:100DD0002D913C911397828193818217930794F010
:100DE00028173907BCF014968D919D910D90BC91F8
:100DF000A02D2481358146815781281739074A075C
:100E00005B0718F4112341F00AC082179307A40767
:100E1000B50740F4112319F061E070E005C06FEFF1
:100E20007FEF02C060E070E0CB011F910895DF9377
:100E3000CF93CDB7DEB7E7E2F0E080E48083E6E26F
:100E4000F0E087E88083CF91DF910895DF93CF931F
:100E500000D00F92CDB7DEB78B838B8187708B83E9
:100E6000A7E2B0E0E7E2F0E08081807E8C93A7E229
:100E7000B0E0E7E2F0E090818B81892B8C930E94B7
:100E8000FF0AA6E2B0E0E6E2F0E080818F648C9396
:100E9000E6E2F0E0808182958F70882F90E081708B
:100EA00090700097A9F3A6E2B0E0E6E2F0E080815E
:100EB00080618C930E94F10AE4E2F0E08081282FA7
:100EC00030E0E5E2F0E08081882F90E0982F8827DD
:100ED000822B932B9A83898389819A810F900F901B
:100EE0000F90CF91DF910895DF93CF9300D000D082
:100EF00000D0CDB7DEB78A836B834C838A81843080
:100F000008F0EEC08B81883008F0EAC08C8188231D
:100F100021F08C81813009F0E3C081E089838A81EE
:100F2000282F30E03E832D838D819E818130910575
:100F300009F447C02D813E81223031052CF48D818A
:100F40009E81009771F0CDC02D813E812230310508
:100F500009F467C08D819E818330910509F491C0A9
:100F6000C0C08C818823A9F4AAE3B0E0EAE3F0E0F2
:100F70008081482F8B81282F30E081E090E0022E85
:100F800002C0880F991F0A94E2F7809584238C93FE
:100F9000A8C08C81813009F0A4C0AAE3B0E0EAE3E4
:100FA000F0E08081482F8B81282F30E081E090E0B5
:100FB000022E02C0880F991F0A94E2F7842B8C93AB
:100FC00090C08C818823A9F4A7E3B0E0E7E3F0E0C8
:100FD0008081482F8B81282F30E081E090E0022E25
:100FE00002C0880F991F0A94E2F7809584238C939E
:100FF00078C08C81813009F074C0A7E3B0E0E7E3EA
:10100000F0E08081482F8B81282F30E081E090E054
:10101000022E02C0880F991F0A94E2F7842B8C934A
:1010200060C08C818823A9F4A4E3B0E0E4E3F0E09D
:101030008081482F8B81282F30E081E090E0022EC4
:1010400002C0880F991F0A94E2F7809584238C933D
:1010500048C08C81813009F044C0A4E3B0E0E4E3EF
:10106000F0E08081482F8B81282F30E081E090E0F4
:10107000022E02C0880F991F0A94E2F7842B8C93EA
:1010800030C08C818823A9F4A1E3B0E0E1E3F0E073
:101090008081482F8B81282F30E081E090E0022E64
:1010A00002C0880F991F0A94E2F7809584238C93DD
:1010B00018C08C818130A9F4A1E3B0E0E1E3F0E055
:1010C0008081482F8B81282F30E081E090E0022E34
:1010D00002C0880F991F0A94E2F7842B8C9301C0F9
:1010E0001982898126960FB6F894DEBF0FBECDBF58
:1010F000CF91DF910895DF93CF9300D000D00F926E
:10110000CDB7DEB78A836B8381E089838A8184309F
:1011100010F0198232C08A81282F30E03D832C8361
:101120008C819D8181309105D1F02C813D812230CF
:1011300031052CF48C819D81009761F01EC02C81BB
:101140003D812230310581F08C819D818330910574
:1011500081F013C0EAE3F0E08B8180830EC0E7E307
:10116000F0E08B81808309C0E4E3F0E08B81808331
:1011700004C0E1E3F0E08B81808389810F900F90C0
:101180000F900F900F90CF91DF910895DF93CF9341
:1011900000D000D000D0CDB7DEB78A836B834C83FC
:1011A00081E089838A81843048F48B81883030F4EF
:1011B0008C81813029F08C81882311F01982E0C064
:1011C0008A81282F30E03E832D838D819E8181305E
:1011D000910509F447C02D813E81223031052CF460
:1011E0008D819E81009771F0CBC02D813E81223090
:1011F000310509F467C08D819E818330910509F422
:1012000091C0BEC08C818823A9F4ABE3B0E0EBE3CE
:10121000F0E08081482F8B81282F30E081E090E042
:10122000022E02C0880F991F0A94E2F7809584234A
:101230008C93A6C08C81813009F0A2C0ABE3B0E0F2
:10124000EBE3F0E08081482F8B81282F30E081E0B4
:1012500090E0022E02C0880F991F0A94E2F7842BB7
:101260008C938EC08C818823A9F4A8E3B0E0E8E3D6
:10127000F0E08081482F8B81282F30E081E090E0E2
:10128000022E02C0880F991F0A94E2F780958423EA
:101290008C9376C08C81813009F072C0A8E3B0E0F5
:1012A000E8E3F0E08081482F8B81282F30E081E057
:1012B00090E0022E02C0880F991F0A94E2F7842B57
:1012C0008C935EC08C818823A9F4A5E3B0E0E5E3AC
:1012D000F0E08081482F8B81282F30E081E090E082
:1012E000022E02C0880F991F0A94E2F7809584238A
:1012F0008C9346C08C81813009F042C0A5E3B0E0F8
:10130000E5E3F0E08081482F8B81282F30E081E0F9
:1013100090E0022E02C0880F991F0A94E2F7842BF6
:101320008C932EC08C818823A9F4A2E3B0E0E2E381
:10133000F0E08081482F8B81282F30E081E090E021
:10134000022E02C0880F991F0A94E2F78095842329
:101350008C9316C08C81813099F4A2E3B0E0E2E373
:10136000F0E08081482F8B81282F30E081E090E0F1
:10137000022E02C0880F991F0A94E2F7842B8C93E7
:10138000898126960FB6F894DEBF0FBECDBFCF91F0
:10139000DF910895DF93CF9300D000D00F92CDB7A7
:1013A000DEB78A836B8381E089838A81843010F081
:1013B000198232C08A81282F30E03D832C838C81B2
:1013C0009D8181309105D1F02C813D812230310504
:1013D0002CF48C819D81009761F01EC02C813D8191
:1013E0002230310581F08C819D818330910581F01F
:1013F00013C0EBE3F0E08B8180830EC0E8E3F0E004
:101400008B81808309C0E5E3F0E08B81808304C099
:10141000E2E3F0E08B81808389810F900F900F9041
:101420000F900F90CF91DF910895DF93CF9300D06D
:1014300000D000D0CDB7DEB78B838B818430A8F588
:101440008B81282F30E03E832D838D819E818130DA
:101450009105D1F02D813E81223031052CF48D8112
:101460009E81009761F01EC02D813E8122303105A2
:1014700081F08D819E818330910581F013C0E9E375
:10148000F0E080818A830EC0E6E3F0E080818A8309
:1014900009C0E3E3F0E080818A8304C0E0E3F0E088
:1014A00080818A839A819C8303C0198229812C833D
:1014B0008C8126960FB6F894DEBF0FBECDBFCF91BC
:1014C000DF910895DF93CF93CDB7DEB727970FB69F
:1014D000F894DEBF0FBECDBF8B836C8381E08A831F
:1014E0008B81843008F070C08C81883008F06CC02B
:1014F00081E08A838B81282F30E03F832E834E81C9
:101500005F814130510541F18E819F81823091058B
:1015100034F42E813F812115310561F052C04E8196
:101520005F814230510551F18E819F818330910559
:10153000B9F147C0E9E3F0E08081282F30E08C81E9
:10154000882F90E0A90102C0559547958A95E2F74A
:10155000CA018170898335C0E6E3F0E08081282FDD
:1015600030E08C81882F90E0A90102C05595479505
:101570008A95E2F7CA018170898323C0E3E3F0E032
:101580008081282F30E08C81882F90E0A90102C053
:10159000559547958A95E2F7CA018170898311C0F4
:1015A000E0E3F0E08081282F30E08C81882F90E00C
:1015B000A90102C0559547958A95E2F7CA01817045
:1015C000898359815D8303C01A828A818D838D81CD
:1015D00027960FB6F894DEBF0FBECDBFCF91DF9137
:1015E0000895DF93CF93CDB7DEB7AFE5B0E0EFE579
:1015F000F0E0808180688C93CF91DF910895DF9334
:10160000CF93CDB7DEB7AFE5B0E0EFE5F0E0808196
:101610008F778C93CF91DF910895DF93CF93CDB7E0
:10162000DEB72A970FB6F894DEBF0FBECDBF898311
:101630006A838981282F30E03A87298789859A85AE
:101640008130910509F452C029853A85223031054F
:1016500009F493C089859A85009709F0B3C08A81FF
:10166000282F30E038872F838F819885813091052E
:10167000C1F02F8138852230310511F18F81988595
:10168000009761F5A5E5B0E0E5E5F0E080818260D6
:101690008C93A5E5B0E0E5E5F0E080818E7F8C934A
:1016A0001DC0A5E5B0E0E5E5F0E0808182608C93A7
:1016B000A5E5B0E0E5E5F0E0808181608C930EC0A7
:1016C000A5E5B0E0E5E5F0E080818D7F8C93A5E5B0
:1016D000B0E0E5E5F0E0808181608C93ABE5B0E0BF
:1016E000EBE5F0E0808180648C936CC08A81282FC8
:1016F00030E03E832D838D819E8181309105C1F044
:101700002D813E812230310511F18D819E8100971E
:1017100061F5A5E5B0E0E5E5F0E0808188608C93B7
:10172000A5E5B0E0E5E5F0E080818B7F8C931DC0FE
:10173000A5E5B0E0E5E5F0E0808188608C93A5E563
:10174000B0E0E5E5F0E0808184608C930EC0A5E513
:10175000B0E0E5E5F0E08081877F8C93A5E5B0E01F
:10176000E5E5F0E0808184608C93ABE5B0E0EBE5EB
:10177000F0E0808180688C9325C08A81282F30E03A
:101780003C832B838B819C81009731F02B813C81A2
:101790002130310549F00FC0A4E5B0E0E4E5F0E008
:1017A00080818F7B8C9307C0A4E5B0E0E4E5F0E096
:1017B000808180648C93ABE5B0E0EBE5F0E0808164
:1017C00080628C932A960FB6F894DEBF0FBECDBF11
:1017D000CF91DF910895DF93CF93CDB7DEB72B97ED
:1017E0000FB6F894DEBF0FBECDBF998788877B8781
:1017F0006A871F821E8288859985009771F52E81E0
:101800003F818A859B85FC01E20FF31F80E3808383
:101810008E819F8101969F838E8324C02E813F817C
:101820008A859B85FC01E20FF31F888599852AE054
:1018300030E0B9010E94AC15805D80838E819F816C
:1018400001969F838E83888599852AE030E0B901CF
:101850000E94AC15CB0199878887888599851816D1
:101860001906E4F22E813F818A859B85FC01E20FF7
:10187000F31F10821D821C828E819F8101979B83A2
:101880008A832CC02C813D818A859B85FC01E20FD7
:10189000F31F808189832C813D818A859B85DC01B2
:1018A000A20FB31F2A813B818A859B85FC01E20F31
:1018B000F31F80818C932A813B818A859B85FC0163
:1018C000E20FF31F898180838C819D8101969D8326
:1018D0008C838A819B8101979B838A832C813D81A4
:1018E0008A819B81281739076CF22B960FB6F894E2
:1018F000DEBF0FBECDBFCF91DF910895DF93CF93B1
:10190000CDB7DEB72F970FB6F894DEBF0FBECDBFB1
:101910008F8783E065E040E00E94C60883E066E0D0
:1019200040E00E94C60882E06F850E94CA0983E0F9
:1019300067E041E00E94C60880E090E0A0E8BFE3D5
:101940008B879C87AD87BE876B857C858D859E85C3
:1019500020E030E04AEF54E40E941F02DC01CB019A
:101960008F839887A987BA876F81788589859A85BB
:1019700020E030E040E85FE30E94250488232CF457
:1019800081E090E09E838D833FC06F81788589855B
:101990009A8520E03FEF4FE757E40E94C5031816F1
:1019A0004CF56B857C858D859E8520E030E040E29E
:1019B00051E40E941F02DC01CB01BC01CD010E9459
:1019C0004900DC01CB019E838D830FC088EC90E041
:1019D0009C838B838B819C810197F1F79C838B8304
:1019E0008D819E8101979E838D838D819E8100973D
:1019F00069F714C06F81788589859A850E944900AE
:101A0000DC01CB019E838D838D819E819A838983A6
:101A100089819A810197F1F79A83898383E067E04E
:101A200040E00E94C6082F960FB6F894DEBF0FBEA6
:101A3000CDBFCF91DF910895DF93CF93CDB7DEB7C0
:101A40002E970FB6F894DEBF0FBECDBF81E00E9487
:101A50007E0C80E090E0A0E0B0E48B879C87AD87AF
:101A6000BE876B857C858D859E8520E030E04AEFC2
:101A700054E40E941F02DC01CB018F839887A98761
:101A8000BA876F81788589859A8520E030E040E8C3
:101A90005FE30E94250488232CF481E090E09E837C
:101AA0008D833FC06F81788589859A8520E03FEFDF
:101AB0004FE757E40E94C50318164CF56B857C85EB
:101AC0008D859E8520E030E040E251E40E941F02B7
:101AD000DC01CB01BC01CD010E944900DC01CB013E
:101AE0009E838D830FC088EC90E09C838B838B81D9
:101AF0009C810197F1F79C838B838D819E81019757
:101B00009E838D838D819E81009769F714C06F81BC
:101B1000788589859A850E944900DC01CB019E83E6
:101B20008D838D819E819A83898389819A81019792
:101B3000F1F79A8389832E960FB6F894DEBF0FBE15
:101B4000CDBFCF91DF910895DF93CF93CDB7DEB7AF
:101B50006C970FB6F894DEBF0FBECDBF83E065E093
:101B600041E00E94740783E066E041E00E94740750
:101B700083E067E041E00E94740782E06FEF0E941B
:101B80007B0888E30E947E0C80E090E0A0E8BFE341
:101B9000898F9A8FAB8FBC8F698D7A8D8B8D9C8D41
:101BA00020E030E04AEF54E40E941F02DC01CB0148
:101BB0008D8B9E8BAF8BB88F6D897E898F89988D29
:101BC00020E030E040E85FE30E94250488232CF405
:101BD00081E090E09C8B8B8B3FC06D897E898F89E3
:101BE000988D20E03FEF4FE757E40E94C503181699
:101BF0004CF5698D7A8D8B8D9C8D20E030E040E234
:101C000051E40E941F02DC01CB01BC01CD010E9406
:101C10004900DC01CB019C8B8B8B0FC088EC90E0E2
:101C20009A8B898B89899A890197F1F79A8B898B8D
:101C30008B899C8901979C8B8B8B8B899C890097C6
:101C400069F714C06D897E898F89988D0E9449003B
:101C5000DC01CB019C8B8B8B8B899C89988B8F872C
:101C60008F8598890197F1F7988B8F878EE00E9476
:101C70007E0C80E090E0A0E8BFE38B879C87AD8777
:101C8000BE876B857C858D859E8520E030E04AEFA0
:101C900054E40E941F02DC01CB018F839887A9873F
:101CA000BA876F81788589859A8520E030E040E8A1
:101CB0005FE30E94250488232CF481E090E09E835A
:101CC0008D833FC06F81788589859A8520E03FEFBD
:101CD0004FE757E40E94C50318164CF56B857C85C9
:101CE0008D859E8520E030E040E251E40E941F0295
:101CF000DC01CB01BC01CD010E944900DC01CB011C
:101D00009E838D830FC088EC90E09C838B838B81B6
:101D10009C810197F1F79C838B838D819E81019734
:101D20009E838D838D819E81009769F714C06F819A
:101D3000788589859A850E944900DC01CB019E83C4
:101D40008D838D819E819A83898389819A81019770
:101D5000F1F79A8389830E941C0D86E00E947E0C15
:101D60006C960FB6F894DEBF0FBECDBFCF91DF915A
:101D70000895DF93CF93CDB7DEB72F970FB6F894C2
:101D8000DEBF0FBECDBF8F8783E065E041E00E94DC
:101D9000C60883E066E040E00E94C60882E06F85E6
:101DA0000E94CA0983E067E041E00E94C60880E023
:101DB00090E0A0E8BFE38B879C87AD87BE876B85EB
:101DC0007C858D859E8520E030E04AEF54E40E94BA
:101DD0001F02DC01CB018F839887A987BA876F81A7
:101DE000788589859A8520E030E040E85FE30E94AD
:101DF000250488232CF481E090E09E838D833FC0EE
:101E00006F81788589859A8520E03FEF4FE757E419
:101E10000E94C50318164CF56B857C858D859E85C3
:101E200020E030E040E251E40E941F02DC01CB01DF
:101E3000BC01CD010E944900DC01CB019E838D8352
:101E40000FC088EC90E09C838B838B819C810197F1
:101E5000F1F79C838B838D819E8101979E838D8377
:101E60008D819E81009769F714C06F81788589857F
:101E70009A850E944900DC01CB019E838D838D8170
:101E80009E819A83898389819A810197F1F79A8348
:101E9000898383E067E040E00E94C6082F960FB672
:101EA000F894DEBF0FBECDBFCF91DF910895DF93D1
:101EB000CF9300D00F92CDB7DEB79B838A83198270
:101EC0000EC08981282F30E08A819B81FC01E20FBE
:101ED000F31F80810E94B90E89818F5F8983898178
:101EE000282F30E08A819B81FC01E20FF31F808163
:101EF000882339F70F900F900F90CF91DF910895BD
:101F0000DF93CF9300D0CDB7DEB789836A838A8110
:101F1000882F90E0029600249695879507949695D1
:101F200087950794982F802D982F8981890F0E947B
:101F30007E0C0F900F90CF91DF910895DF93CF9398
:101F400000D00F92CDB7DEB789838981282F30E08A
:101F50003B832A838A819B81009731F02A813B81D0
:101F60002130310529F007C088E10E947E0C03C0B2
:101F70008CE10E947E0C0F900F900F90CF91DF911B
:101F80000895DF93CF93CDB7DEB72A970FB6F894B5
:101F9000DEBF0FBECDBF9A87898789859A859E014E
:101FA0002F5F3F4FB9010E94EB0BCE0101960E94BB
:101FB000570F2A960FB6F894DEBF0FBECDBFCF9154
:101FC000DF910895DF93CF93CDB7DEB7AAE2B0E0FB
:101FD000EAE2F0E0808180618C93AAE2B0E0EAE27C
:101FE000F0E0808188608C93A0E4B0E0E0E4F0E071
:101FF000808180688C93AAE2B0E0EAE2F0E0808120
:102000008B7F8C93A0E4B0E0E0E4F0E0808184601A
:102010008C93A0E4B0E0E0E4F0E0808182608C93F7
:10202000E9E2F0E083E38083CF91DF910895DF93CD
:10203000CF930F92CDB7DEB78983EBE2F0E08081DA
:10204000829586958770882F90E0817090700097B8
:10205000A1F3ECE2F0E0898180830F90CF91DF91D2
:102060000895DF93CF93CDB7DEB7EBE2F0E0808148
:102070008823DCF7ECE2F0E08081CF91DF910895D6
:10208000DF93CF9300D0CDB7DEB789836A83898190
:102090000E9417108A810E9417100F900F90CF9105
:1020A000DF910895DF93CF9300D00F92CDB7DEB7C5
:1020B00089836A838981482F50E08A81282F30E004
:1020C0008FEF90E0821B930B841795071CF42FEF82
:1020D0002B8305C099818A81292F280F2B838B811F
:1020E0000F900F900F90CF91DF910895DF93CF93D2
:1020F00000D00F92CDB7DEB789836A8399818A8138
:10210000981710F41B8205C099818A81292F281BFA
:102110002B838B810F900F900F90CF91DF910895BB
:10212000DF93CF93CDB7DEB762970FB6F894DEBFDB
:102130000FBECDBF9A8B898B89899A89CC01A0E08B
:10214000B0E0BC01CD010E94A904DC01CB01BC01BF
:10215000CD0120E030E841E154E40E94C5031816A7
:102160000CF045C089899A8980509240CC01A0E04A
:10217000B0E0BC01CD010E94A904DC01CB01BC018F
:10218000CD0120E030E040E054E40E941903DC017E
:10219000CB01BC01CD0120E030E040EA51E40E94D7
:1021A0001F02DC01CB01BC01CD010E944900DC0112
:1021B000CB01888B8091A20168890E947610809360
:1021C000A2018091A30168890E9452108093A3010B
:1021D0008091A40168890E9476108093A401809167
:1021E000A50168890E9452108093A5015EC089896B
:1021F0009A89CC01A0E0B0E0BC01CD010E94A90405
:10220000DC01CB01BC01CD0120E030E047EE53E41E
:102210000E94250488230CF048C020E032E0898920
:102220009A89A901481B590BCA01CC01A0E0B0E072
:10223000BC01CD010E94A904DC01CB01BC01CD0190
:1022400020E030E040E054E40E941903DC01CB01BF
:10225000BC01CD0120E030E040EA51E40E941F02C1
:10226000DC01CB01BC01CD010E944900DC01CB01A6
:102270008F878091A2016F850E9452108093A201E6
:102280008091A3016F850E9476108093A3018091B5
:10229000A4016F850E9452108093A4018091A50132
:1022A0006F850E9476108093A50180E090E0A0EAFF
:1022B000B1E48B879C87AD87BE876B857C858D85D8
:1022C0009E8520E030E04AEF54E40E941F02DC01CA
:1022D000CB018F839887A987BA876F817885898595
:1022E0009A8520E030E040E85FE30E9425048823DF
:1022F0002CF481E090E09E838D833FC06F817885D0
:1023000089859A8520E03FEF4FE757E40E94C50397
:1023100018164CF56B857C858D859E8520E030E018
:1023200040E251E40E941F02DC01CB01BC01CD015F
:102330000E944900DC01CB019E838D830FC088EC95
:1023400090E09C838B838B819C810197F1F79C8328
:102350008B838D819E8101979E838D838D819E814C
:10236000009769F714C06F81788589859A850E94E6
:102370004900DC01CB019E838D838D819E819A83F0
:10238000898389819A810197F1F79A83898362967B
:102390000FB6F894DEBF0FBECDBFCF91DF91089589
:1023A000DF93CF93CDB7DEB762970FB6F894DEBF59
:1023B0000FBECDBF9A8B898B89899A89CC01A0E009
:1023C000B0E0BC01CD010E94A904DC01CB01BC013D
:1023D000CD0120E030E841E154E40E94C503181625
:1023E0000CF045C089899A8980509240CC01A0E0C8
:1023F000B0E0BC01CD010E94A904DC01CB01BC010D
:10240000CD0120E030E040E054E40E941903DC01FB
:10241000CB01BC01CD0120E030E040EA51E40E9454
:102420001F02DC01CB01BC01CD010E944900DC018F
:10243000CB01888B8091A20168890E9476108093DD
:10244000A2018091A30168890E9476108093A30164
:102450008091A40168890E9452108093A401809108
:10246000A50168890E9452108093A5015EC08989E8
:102470009A89CC01A0E0B0E0BC01CD010E94A90482
:10248000DC01CB01BC01CD0120E030E047EE53E49C
:102490000E94250488230CF048C020E032E089899E
:1024A0009A89A901481B590BCA01CC01A0E0B0E0F0
:1024B000BC01CD010E94A904DC01CB01BC01CD010E
:1024C00020E030E040E054E40E941903DC01CB013D
:1024D000BC01CD0120E030E040EA51E40E941F023F
:1024E000DC01CB01BC01CD010E944900DC01CB0124
:1024F0008F878091A2016F850E9452108093A20164
:102500008091A3016F850E9452108093A301809156
:10251000A4016F850E9476108093A4018091A5018B
:102520006F850E9476108093A50180E090E0A0EA7C
:10253000B1E48B879C87AD87BE876B857C858D8555
:102540009E8520E030E04AEF54E40E941F02DC0147
:10255000CB018F839887A987BA876F817885898512
:102560009A8520E030E040E85FE30E94250488235C
:102570002CF481E090E09E838D833FC06F8178854D
:1025800089859A8520E03FEF4FE757E40E94C50315
:1025900018164CF56B857C858D859E8520E030E096
:1025A00040E251E40E941F02DC01CB01BC01CD01DD
:1025B0000E944900DC01CB019E838D830FC088EC13
:1025C00090E09C838B838B819C810197F1F79C83A6
:1025D0008B838D819E8101979E838D838D819E81CA
:1025E000009769F714C06F81788589859A850E9464
:1025F0004900DC01CB019E838D838D819E819A836E
:10260000898389819A810197F1F79A8389836296F8
:102610000FB6F894DEBF0FBECDBFCF91DF91089506
:10262000DF93CF93CDB7DEB72E970FB6F894DEBF0A
:102630000FBECDBF81E060E041E00E94740781E001
:1026400060E041E00E94C60881E061E041E00E9454
:1026500074070E94A40D0E94E20F0E94170780E0F9
:1026600060E00E940D0B83E062E040E00E9474078E
:1026700083E062E041E00E94C60881E060E00E94E1
:102680000D0B83E063E040E00E94740783E063E0A9
:1026900041E00E94C60881E060E040E00E94C60878
:1026A00081E061E041E00E94C60880E00E942607C8
:1026B0009C838B8381E00E9426079A8389838B8188
:1026C0009C810E94901089819A810E94D0119091E2
:1026D0009D018091A2011E86981711F021E02E879E
:1026E00090919E018091A3011D86981711F031E011
:1026F0003D878E859D85892B282F30E03C872B8751
:1027000090919F018091A4011A861986981721F053
:1027100081E090E09A8789872B853C8589859A8519
:10272000282B392B38872F839091A0018091A50108
:102730001E821D82981721F021E030E03E832D8318
:102740008F8198852D813E81822B932B009709F4F0
:10275000ACCF9091A20180E0692F0E94401090912F
:10276000A30180E4692F0E9440109091A40180E8A9
:10277000692F0E9440109091A50180EC692F0E9462
:1027800040100E941C0D80E690E00E94570F80913F
:10279000A201882F90E00E94C10F85E690E00E9480
:1027A000570F8091A301882F90E00E94C10F80E015
:1027B00061E00E94800F8CE690E00E94570F8091AC
:1027C000A401882F90E00E94C10F81E790E00E9451
:1027D000570F8091A501882F90E00E94C10F809132
:1027E000A20180939D018091A30180939E0180911D
:1027F000A40180939F018091A5018093A00155CFF2
:102800001F920F920FB60F9211242F933F934F9365
:102810005F936F937F938F939F93AF93BF93EF9348
:10282000FF93DF93CF93CDB7DEB72E97DEBFCDBF3B
:1028300081E061E040E00E94C60881E060E041E0A4
:102840000E94C6080E941C0D88E790E00E94570F66
:102850008091A20164E10E9452108093A2018091B4
:10286000A30164E10E9452108093A3018091A4010E
:1028700064E10E9452108093A4018091A50164E15B
:102880000E9452108093A50180E090E0A0EAB1E49C
:102890008B879C87AD87BE876B857C858D859E8564
:1028A00020E030E04AEF54E40E941F02DC01CB013B
:1028B0008F839887A987BA876F81788589859A855C
:1028C00020E030E040E85FE30E94250488232CF4F8
:1028D00081E090E09E838D833FC06F8178858985FC
:1028E0009A8520E03FEF4FE757E40E94C503181692
:1028F0004CF56B857C858D859E8520E030E040E23F
:1029000051E40E941F02DC01CB01BC01CD010E94F9
:102910004900DC01CB019E838D830FC088EC90E0E1
:102920009C838B838B819C810197F1F79C838B83A4
:102930008D819E8101979E838D838D819E810097DD
:1029400069F714C06F81788589859A850E9449004E
:10295000DC01CB019E838D838D819E819A83898347
:1029600089819A810197F1F79A83898381E060E0F8
:1029700040E00E94C60881E061E041E00E94C60894
:102980002E96DEBFCDBFCF91DF91FF91EF91BF912A
:10299000AF919F918F917F916F915F914F913F91F7
:1029A0002F910F900FBE0F901F9018951F920F92AE
:1029B0000FB60F9211242F933F934F935F936F9312
:1029C0007F938F939F93AF93BF93EF93FF93DF9387
:1029D000CF93CDB7DEB72E97DEBFCDBF81E061E0EC
:1029E00040E00E94C60881E060E041E00E94C60825
:1029F0000E941C0D86E890E00E94570F8091A20172
:102A000064E10E9476108093A2018091A30164E1A9
:102A10000E9476108093A3018091A40164E10E943A
:102A200076108093A4018091A50164E10E94761044
:102A30008093A50180E090E0A0EAB1E48B879C87B9
:102A4000AD87BE876B857C858D859E8520E030E0D7
:102A50004AEF54E40E941F02DC01CB018F83988768
:102A6000A987BA876F81788589859A8520E030E0CB
:102A700040E85FE30E94250488232CF481E090E085
:102A80009E838D833FC06F81788589859A8520E0FC
:102A90003FEF4FE757E40E94C50318164CF56B85CE
:102AA0007C858D859E8520E030E040E251E40E94E7
:102AB0001F02DC01CB01BC01CD010E944900DC01F9
:102AC000CB019E838D830FC088EC90E09C838B8329
:102AD0008B819C810197F1F79C838B838D819E81F3
:102AE00001979E838D838D819E81009769F714C025
:102AF0006F81788589859A850E944900DC01CB0128
:102B00009E838D838D819E819A83898389819A8119
:102B10000197F1F79A83898381E060E040E00E94A9
:102B2000C60881E061E041E00E94C6082E96DEBF43
:102B3000CDBFCF91DF91FF91EF91BF91AF919F9169
:102B40008F917F916F915F914F913F912F910F9056
:102B50000FBE0F901F90189597FB092E07260AD0DD
:102B600077FD04D00CD006D000201AF47095619542
:102B70007F4F0895F6F7909581959F4F0895AA1B72
:102B8000BB1B51E107C0AA1FBB1FA617B70710F058
:102B9000A61BB70B881F991F5A95A9F7809590958A
:102BA000BC01CD0108952F923F924F925F926F9298
:102BB0007F928F929F92AF92BF92CF92DF92EF92CD
:102BC000FF920F931F93CF93DF93CDB7DEB7CA1B4E
:102BD000DB0B0FB6F894DEBF0FBECDBF09942A8879
:102BE000398848885F846E847D848C849B84AA8421
:102BF000B984C884DF80EE80FD800C811B81AA81AE
:102C0000B981CE0FD11D0FB6F894DEBF0FBECDBF78
:082C1000ED010895F894FFCFD7
:102C18004D30203A00207C4D31203A004D32203A88
:102C280000207C4D33203A00415343454E44494EE1
:102C380047202E2E2E0044455343454E44494E47C7
:102C4800202E2E2E000000000000000000000102CF
:102C5800020303030304040404040404040505052F
:102C68000505050505050505050505050506060609
:102C780006060606060606060606060606060606EC
:102C880006060606060606060606060606070707D9
:102C980007070707070707070707070707070707BC
:102CA80007070707070707070707070707070707AC
:102CB800070707070707070707070707070707079C
:102CC8000707070707070707070707070708080889
:102CD800080808080808080808080808080808086C
:102CE800080808080808080808080808080808085C
:102CF800080808080808080808080808080808084C
:102D0800080808080808080808080808080808083B
:102D1800080808080808080808080808080808082B
:102D2800080808080808080808080808080808081B
:102D3800080808080808080808080808080808080B
:102D4800080808080808080808080808080A0A0AF5
:022D58000A006F
:00000001FF
