:100000000C942A000C9447000C9447000C94470071
:100010000C9447000C9447000C9447000C94470044
:100020000C9447000C9447000C9447000C94470034
:100030000C9447000C9447000C9447000C94470024
:100040000C9447000C9447000C9447000C94470014
:100050000C94470011241FBECFE5D8E0DEBFCDBF12
:1000600011E0A8E6B1E001C01D92AC36B107E1F79E
:1000700011E0A0E6B0E0EEE3FCE102C005900D92D5
:10008000A836B107D9F70E94640D0C941D0E0C948C
:100090000000EF92FF920F931F937B018C0120E0F1
:1000A00030E040E05FE40E94C50388238CF0C80183
:1000B000B70120E030E040E05FE40E94C1010E940F
:1000C000F5039B01AC01205030404040504806C031
:1000D000C801B7010E94F5039B01AC01B901CA0137
:1000E0001F910F91FF90EF900895A0E0B0E0EBE733
:1000F000F0E00C94E60DDC012B01FA019C919230AA
:1001000008F439C1EB018881823008F433C194309E
:1001100069F4843009F02FC111969C91119789815F
:10012000981709F428C1A0E6B0E025C1843009F48D
:1001300021C18230A9F4923009F01DC19A01AD01AC
:1001400088E0EA010990AE01E90109929E0181501F
:10015000C1F7E201898111969C918923818308C1AD
:10016000923009F407C112962D903C901397EB0141
:100170008A819B811496AD90BD90CD90DC901797AD
:10018000EC80FD800E811F819101281B390BB90184
:1001900037FF04C066277727621B730B6032710537
:1001A0000CF061C0121613066CF537014801062EDB
:1001B00004C096948794779467940A94D2F721E0C8
:1001C00030E040E050E004C0220F331F441F551FB1
:1001D0006A95D2F721503040404050402E213F21B7
:1001E00040235123211531054105510521F021E01E
:1001F00030E040E050E079018A01E628F72808293C
:1002000019293CC0232BD1F1260E371E350146019A
:10021000062E04C096948794779467940A94D2F734
:1002200021E030E040E050E004C0220F331F441FC3
:10023000551F6A95D2F721503040404050402A2146
:100240003B214C215D21211531054105510521F04E
:1002500021E030E040E050E059016A01A628B728CB
:10026000C828D9280BC0821593052CF01C01AA249C
:10027000BB24650103C0EE24FF24870111969C91E5
:10028000D20111968C91981709F445C0992339F041
:10029000A80197012A193B094C095D0906C0A6016E
:1002A00095012E193F09400B510B57FD08C01182D3
:1002B0003382228224833583468357831DC081E0A5
:1002C00081833382228288279927DC01821B930B4A
:1002D000A40BB50B84839583A683B7830DC0220F2F
:1002E000331F441F551F24833583468357838281E0
:1002F000938101979383828324813581468157813D
:10030000DA01C9010197A109B1098F5F9F4FAF4F72
:10031000BF4328F30BC0918333822282EA0CFB1C7B
:100320000C1D1D1DE482F5820683178383E0808304
:10033000248135814681578157FF1AC0C901AA27F8
:1003400097FDA095BA2F81709070A070B0705695EF
:10035000479537952795822B932BA42BB52B848318
:100360009583A683B7838281938101969383828349
:10037000DF0101C0D201CD01CDB7DEB7E2E10C94BF
:10038000020EA0E2B0E0E7ECF1E00C94F20D69831C
:100390007A838B839C832D833E834F835887E9E048
:1003A000EE2EF12CEC0EFD1ECE010196B7010E943F
:1003B000E6058E010F5E1F4FCE010596B8010E9423
:1003C000E6058A8991E089278A8BC701B801AE01C9
:1003D000475E5F4F0E9475000E941105A096E6E0FF
:1003E0000C940E0EA0E2B0E0E8EFF1E00C94F20DF8
:1003F00069837A838B839C832D833E834F835887C5
:10040000F9E0EF2EF12CEC0EFD1ECE010196B701A6
:100410000E94E6058E010F5E1F4FCE010596B801C2
:100420000E94E605C701B801AE01475E5F4F0E941A
:1004300075000E941105A096E6E00C940E0EA0E255
:10044000B0E0E5E2F2E00C94E60D69837A838B83F9
:100450009C832D833E834F835887CE010196BE0136
:10046000675F7F4F0E94E605CE010596BE016F5E75
:100470007F4F0E94E6059985923088F08989823005
:10048000C8F0943019F4823051F404C0843029F457
:10049000923081F480E690E0C6C0923049F420E0CA
:1004A0009A858A89981321E02A87CE010996BBC0D4
:1004B000823049F420E09A858A89981321E02A8BBA
:1004C000CE014196B0C02D843E844F8458886D88FB
:1004D0007E888F88988CEE24FF248701AA24BB2471
:1004E000650140E050E060E070E0E0E0F0E0C10174
:1004F00081709070892BE9F0E60CF71C081D191D1E
:100500009A01AB012A0D3B1D4C1D5D1D80E090E062
:10051000A0E0B0E0E614F7040805190520F481E036
:1005200090E0A0E0B0E0BA01A901480F591F6A1F8E
:100530007B1FAA0CBB1CCC1CDD1C97FE08C081E0F5
:1005400090E0A0E0B0E0A82AB92ACA2ADB2A3196B6
:10055000E032F10549F0660C771C881C991C569412
:10056000479437942794C3CFFA85EA892B893C892D
:100570008B859C85280F391F2E5F3F4F17C0CA01FE
:1005800081709070892B61F016950795F794E79428
:1005900080E090E0A0E0B0E8E82AF92A0A2B1B2BC3
:1005A00076956795579547952F5F3F4F77FDE7CF36
:1005B0000CC0440F551F661F771F17FD4160EE0CDE
:1005C000FF1C001F111F21503040403090E05907A0
:1005D00090E0690790E4790760F32B8F3C8FDB0193
:1005E000CA018F779070A070B07080349105A1051A
:1005F000B10561F447FD0AC0E114F10401051105DC
:1006000029F0405C5F4F6F4F7F4F40781A8EFE1786
:1006100011F081E08A8F4D8F5E8F6F8F78A383E01A
:10062000898FCE0149960E941105A096E2E10C94B3
:10063000020EA8E1B0E0EFE1F3E00C94EE0D698367
:100640007A838B839C832D833E834F835887B9E0C5
:10065000EB2EF12CEC0EFD1ECE010196B7010E948F
:10066000E6058E010F5E1F4FCE010596B8010E9470
:10067000E6052985223008F47EC03989323010F42D
:10068000B8017CC08A859A8989278A87243011F02D
:10069000223031F4231709F06EC060E670E06EC0BE
:1006A000343039F41D861E861F86188A1C861B86E8
:1006B00004C0323021F484E08987B7015FC02B8504
:1006C0003C858B899C89281B390B3C872B87ED84C3
:1006D000FE840F851889AD88BE88CF88D88CEA142F
:1006E000FB040C051D0540F4EE0CFF1C001F111F40
:1006F000215030403C872B8720E030E040E050E044
:1007000080E090E0A0E0B0E460E070E0EA14FB0478
:100710000C051D0540F0282B392B4A2B5B2BEA18C2
:10072000FB080C091D09B695A79597958795EE0CC2
:10073000FF1C001F111F6F5F7F4F6F31710531F775
:10074000DA01C9018F779070A070B0708034910584
:10075000A105B10561F427FD0AC0E114F10401050A
:10076000110529F0205C3F4F4F4F5F4F20782D87B8
:100770003E874F87588BBE01675F7F4FCB010E943A
:1007800011056896EAE00C940A0EA8E1B0E0EBECE3
:10079000F3E00C94F20D69837A838B839C832D8321
:1007A0003E834F83588789E0E82EF12CEC0EFD1E26
:1007B000CE010196B7010E94E6058E010F5E1F4F24
:1007C000CE010596B8010E94E6058985823040F089
:1007D0008989823028F0C701B8010E945E0601C0F5
:1007E0008FEF6896E6E00C940E0EACE0B0E0EBEF15
:1007F000F3E00C94F60D69837A838B839C83CE019E
:100800000196BE016B5F7F4F0E94E6058D818230AD
:1008100061F1823050F1843021F48E81882351F1CE
:100820002EC02F81388537FD20C06E812F313105D4
:100830001CF06623F9F023C08EE190E0821B930B3D
:1008400029853A854B855C8504C056954795379533
:1008500027958A95D2F76623B1F05095409530954B
:1008600021953F4F4F4F5F4F0EC020E030E040E0FA
:1008700050E009C02FEF3FEF4FEF5FE704C020E0EB
:1008800030E040E050E8B901CA012C96E2E00C9457
:10089000120EA8E0B0E0EFE4F4E00C94EE0D7B0162
:1008A0008C01611571058105910519F482E0898338
:1008B00060C083E089838EE1C82ED12CDC82CB829C
:1008C000ED82FE820F831887C801B7010E94C2041F
:1008D000FC013197F7FF3BC0222733272E1B3F0B2C
:1008E00057016801022E04C0D694C794B794A79408
:1008F0000A94D2F740E050E060E070E081E090E0E0
:10090000A0E0B0E004C0880F991FAA1FBB1F2A9562
:10091000D2F70197A109B1098E219F21A023B1230C
:100920000097A105B10521F041E050E060E070E0E2
:100930004A295B296C297D294D835E836F837887E3
:100940008EE190E08E1B9F0B9C838B8312C03097AF
:1009500081F00E2E04C0EE0CFF1C001F111F0A9424
:10096000D2F7ED82FE820F831887CE1ADF0ADC826F
:10097000CB821A82CE0101960E9411052896EAE0E8
:100980000C940A0EEF92FF920F931F937B018C0140
:1009900080E0E81680E0F80681E0080780E01807AC
:1009A00088F48FEFE816F1040105110531F028F005
:1009B00088E090E0A0E0B0E017C080E090E0A0E028
:1009C000B0E012C080E0E81680E0F80680E008079A
:1009D00081E0180728F088E190E0A0E0B0E004C0D2
:1009E00080E190E0A0E0B0E020E230E040E050E0C4
:1009F000281B390B4A0B5B0B04C016950795F7941F
:100A0000E7948A95D2F7F701E859FF4F8081281BB8
:100A1000310941095109C9011F910F91FF90EF90D0
:100A20000895DF92EF92FF920F931F93FC01E480F1
:100A3000F58006811781D1808081823048F480E082
:100A400090E0A0E1B0E0E82AF92A0A2B1B2BA5C010
:100A5000843009F49FC0823021F4EE24FF24870102
:100A600005C0E114F1040105110519F4E0E0F0E01E
:100A700096C0628173819FEF623879070CF05BC08A
:100A800022E83FEF261B370B2A3131052CF020E0FE
:100A900030E040E050E02AC0B801A701022E04C0B7
:100AA00076956795579547950A94D2F781E090E03F
:100AB000A0E0B0E004C0880F991FAA1FBB1F2A95B1
:100AC000D2F70197A109B1098E219F21A023B1235B
:100AD0000097A105B10521F081E090E0A0E0B0E031
:100AE0009A01AB01282B392B4A2B5B2BDA01C90168
:100AF0008F779070A070B07080349105A105B1051A
:100B000039F427FF09C0205C3F4F4F4F5F4F04C0AF
:100B1000215C3F4F4F4F5F4FE0E0F0E02030A0E01E
:100B20003A07A0E04A07A0E45A0710F0E1E0F0E03D
:100B300079018A0127C06038710564F5FB01E1582D
:100B4000FF4FD801C7018F779070A070B0708034CC
:100B50009105A105B10539F4E7FE0DC080E490E0F0
:100B6000A0E0B0E004C08FE390E0A0E0B0E0E80EC9
:100B7000F91E0A1F1B1F17FF05C016950795F7944E
:100B8000E794319687E016950795F794E7948A9550
:100B9000D1F705C0EE24FF248701EFEFF0E06E2FC0
:100BA000679566276795902F9F77D794DD24D79414
:100BB0008E2F8695492F462B582F5D29B701CA01E4
:100BC0001F910F91FF90EF90DF900895FC01DB01E2
:100BD000408151812281622F6F7770E0221F22278E
:100BE000221F9381892F880F822B282F30E0991F95
:100BF0009927991F11969C93119721153105A9F5F5
:100C0000411551056105710511F482E037C082E894
:100C10009FEF13969C938E9312979A01AB0167E016
:100C2000220F331F441F551F6A95D1F783E08C9321
:100C30000DC0220F331F441F551F12968D919C919A
:100C40001397019713969C938E931297203080E010
:100C5000380780E0480780E4580758F314962D932E
:100C60003D934D935C93179708952F3F310579F489
:100C7000411551056105710519F484E08C930895BF
:100C800064FF03C081E08C9312C01C9210C02F57E8
:100C9000304013963C932E93129783E08C9387E019
:100CA000440F551F661F771F8A95D1F770641496FD
:100CB0004D935D936D937C93179708951F93DC017B
:100CC000FB019C91923008F447C08081823008F487
:100CD00043C0943051F411961C91843099F5818170
:100CE000682F70E0611B71093FC0843021F09230A1
:100CF00031F48230B9F18181882389F12DC01196B8
:100D00001C9111978230F1F081811817D9F4129655
:100D10002D913C911397828193818217930794F0D0
:100D200028173907BCF014968D919D910D90BC91B8
:100D3000A02D2481358146815781281739074A071C
:100D40005B0718F4112341F00AC082179307A40728
:100D5000B50740F4112319F061E070E005C06FEFB2
:100D60007FEF02C060E070E0CB011F910895DF9338
:100D7000CF93CDB7DEB7E7E2F0E080E48083E6E230
:100D8000F0E087E88083CF91DF910895DF93CF93E0
:100D900000D00F92CDB7DEB78B838B8187708B83AA
:100DA000A7E2B0E0E7E2F0E08081807E8C93A7E2EA
:100DB000B0E0E7E2F0E090818B81892B8C930E9478
:100DC0009F0AA6E2B0E0E6E2F0E080818F648C93B7
:100DD000E6E2F0E0808182958F70882F90E081704C
:100DE00090700097A9F3A6E2B0E0E6E2F0E080811F
:100DF00080618C930E94910AE4E2F0E08081282FC8
:100E000030E0E5E2F0E08081882F90E0982F88279D
:100E1000822B932B9A83898389819A810F900F90DB
:100E20000F90CF91DF910895DF93CF9300D000D042
:100E300000D0CDB7DEB78A836B834C838A81843040
:100E400008F0EEC08B81883008F0EAC08C818823DE
:100E500021F08C81813009F0E3C081E089838A81AF
:100E6000282F30E03E832D838D819E818130910536
:100E700009F447C02D813E81223031052CF48D814B
:100E80009E81009771F0CDC02D813E8122303105C9
:100E900009F467C08D819E818330910509F491C06A
:100EA000C0C08C818823A9F4AAE3B0E0EAE3F0E0B3
:100EB0008081482F8B81282F30E081E090E0022E46
:100EC00002C0880F991F0A94E2F7809584238C93BF
:100ED000A8C08C81813009F0A4C0AAE3B0E0EAE3A5
:100EE000F0E08081482F8B81282F30E081E090E076
:100EF000022E02C0880F991F0A94E2F7842B8C936C
:100F000090C08C818823A9F4A7E3B0E0E7E3F0E088
:100F10008081482F8B81282F30E081E090E0022EE5
:100F200002C0880F991F0A94E2F7809584238C935E
:100F300078C08C81813009F074C0A7E3B0E0E7E3AA
:100F4000F0E08081482F8B81282F30E081E090E015
:100F5000022E02C0880F991F0A94E2F7842B8C930B
:100F600060C08C818823A9F4A4E3B0E0E4E3F0E05E
:100F70008081482F8B81282F30E081E090E0022E85
:100F800002C0880F991F0A94E2F7809584238C93FE
:100F900048C08C81813009F044C0A4E3B0E0E4E3B0
:100FA000F0E08081482F8B81282F30E081E090E0B5
:100FB000022E02C0880F991F0A94E2F7842B8C93AB
:100FC00030C08C818823A9F4A1E3B0E0E1E3F0E034
:100FD0008081482F8B81282F30E081E090E0022E25
:100FE00002C0880F991F0A94E2F7809584238C939E
:100FF00018C08C818130A9F4A1E3B0E0E1E3F0E016
:101000008081482F8B81282F30E081E090E0022EF4
:1010100002C0880F991F0A94E2F7842B8C9301C0B9
:101020001982898126960FB6F894DEBF0FBECDBF18
:10103000CF91DF910895DF93CF9300D000D00F922E
:10104000CDB7DEB78A836B8381E089838A81843060
:1010500010F0198232C08A81282F30E03D832C8322
:101060008C819D8181309105D1F02C813D81223090
:1010700031052CF48C819D81009761F01EC02C817C
:101080003D812230310581F08C819D818330910535
:1010900081F013C0EAE3F0E08B8180830EC0E7E3C8
:1010A000F0E08B81808309C0E4E3F0E08B818083F2
:1010B00004C0E1E3F0E08B81808389810F900F9081
:1010C0000F900F900F90CF91DF910895DF93CF9302
:1010D00000D000D000D0CDB7DEB78A836B834C83BD
:1010E00081E089838A81843048F48B81883030F4B0
:1010F0008C81813029F08C81882311F01982E0C025
:101100008A81282F30E03E832D838D819E8181301E
:10111000910509F447C02D813E81223031052CF420
:101120008D819E81009771F0CBC02D813E81223050
:10113000310509F467C08D819E818330910509F4E2
:1011400091C0BEC08C818823A9F4ABE3B0E0EBE38F
:10115000F0E08081482F8B81282F30E081E090E003
:10116000022E02C0880F991F0A94E2F7809584230B
:101170008C93A6C08C81813009F0A2C0ABE3B0E0B3
:10118000EBE3F0E08081482F8B81282F30E081E075
:1011900090E0022E02C0880F991F0A94E2F7842B78
:1011A0008C938EC08C818823A9F4A8E3B0E0E8E397
:1011B000F0E08081482F8B81282F30E081E090E0A3
:1011C000022E02C0880F991F0A94E2F780958423AB
:1011D0008C9376C08C81813009F072C0A8E3B0E0B6
:1011E000E8E3F0E08081482F8B81282F30E081E018
:1011F00090E0022E02C0880F991F0A94E2F7842B18
:101200008C935EC08C818823A9F4A5E3B0E0E5E36C
:10121000F0E08081482F8B81282F30E081E090E042
:10122000022E02C0880F991F0A94E2F7809584234A
:101230008C9346C08C81813009F042C0A5E3B0E0B8
:10124000E5E3F0E08081482F8B81282F30E081E0BA
:1012500090E0022E02C0880F991F0A94E2F7842BB7
:101260008C932EC08C818823A9F4A2E3B0E0E2E342
:10127000F0E08081482F8B81282F30E081E090E0E2
:10128000022E02C0880F991F0A94E2F780958423EA
:101290008C9316C08C81813099F4A2E3B0E0E2E334
:1012A000F0E08081482F8B81282F30E081E090E0B2
:1012B000022E02C0880F991F0A94E2F7842B8C93A8
:1012C000898126960FB6F894DEBF0FBECDBFCF91B1
:1012D000DF910895DF93CF9300D000D00F92CDB768
:1012E000DEB78A836B8381E089838A81843010F042
:1012F000198232C08A81282F30E03D832C838C8173
:101300009D8181309105D1F02C813D8122303105C4
:101310002CF48C819D81009761F01EC02C813D8151
:101320002230310581F08C819D818330910581F0DF
:1013300013C0EBE3F0E08B8180830EC0E8E3F0E0C4
:101340008B81808309C0E5E3F0E08B81808304C05A
:10135000E2E3F0E08B81808389810F900F900F9002
:101360000F900F90CF91DF910895DF93CF9300D02E
:1013700000D000D0CDB7DEB78B838B818430A8F549
:101380008B81282F30E03E832D838D819E8181309B
:101390009105D1F02D813E81223031052CF48D81D3
:1013A0009E81009761F01EC02D813E812230310563
:1013B00081F08D819E818330910581F013C0E9E336
:1013C000F0E080818A830EC0E6E3F0E080818A83CA
:1013D00009C0E3E3F0E080818A8304C0E0E3F0E049
:1013E00080818A839A819C8303C0198229812C83FE
:1013F0008C8126960FB6F894DEBF0FBECDBFCF917D
:10140000DF910895DF93CF93CDB7DEB727970FB65F
:10141000F894DEBF0FBECDBF8B836C8381E08A83DF
:101420008B81843008F070C08C81883008F06CC0EB
:1014300081E08A838B81282F30E03F832E834E8189
:101440005F814130510541F18E819F81823091054C
:1014500034F42E813F812115310561F052C04E8157
:101460005F814230510551F18E819F81833091051A
:10147000B9F147C0E9E3F0E08081282F30E08C81AA
:10148000882F90E0A90102C0559547958A95E2F70B
:10149000CA018170898335C0E6E3F0E08081282F9E
:1014A00030E08C81882F90E0A90102C055954795C6
:1014B0008A95E2F7CA018170898323C0E3E3F0E0F3
:1014C0008081282F30E08C81882F90E0A90102C014
:1014D000559547958A95E2F7CA018170898311C0B5
:1014E000E0E3F0E08081282F30E08C81882F90E0CD
:1014F000A90102C0559547958A95E2F7CA01817006
:10150000898359815D8303C01A828A818D838D818D
:1015100027960FB6F894DEBF0FBECDBFCF91DF91F7
:101520000895DF93CF93CDB7DEB7AFE5B0E0EFE539
:10153000F0E0808180688C93CF91DF910895DF93F4
:10154000CF93CDB7DEB7AFE5B0E0EFE5F0E0808157
:101550008F778C93CF91DF910895DF93CF93CDB7A1
:10156000DEB72A970FB6F894DEBF0FBECDBF8983D2
:101570006A838981282F30E03A87298789859A856F
:101580008130910509F452C029853A852230310510
:1015900009F493C089859A85009709F0B3C08A81C0
:1015A000282F30E038872F838F81988581309105EF
:1015B000C1F02F8138852230310511F18F81988556
:1015C000009761F5A5E5B0E0E5E5F0E08081826097
:1015D0008C93A5E5B0E0E5E5F0E080818E7F8C930B
:1015E0001DC0A5E5B0E0E5E5F0E0808182608C9368
:1015F000A5E5B0E0E5E5F0E0808181608C930EC068
:10160000A5E5B0E0E5E5F0E080818D7F8C93A5E570
:10161000B0E0E5E5F0E0808181608C93ABE5B0E07F
:10162000EBE5F0E0808180648C936CC08A81282F88
:1016300030E03E832D838D819E8181309105C1F004
:101640002D813E812230310511F18D819E810097DF
:1016500061F5A5E5B0E0E5E5F0E0808188608C9378
:10166000A5E5B0E0E5E5F0E080818B7F8C931DC0BF
:10167000A5E5B0E0E5E5F0E0808188608C93A5E524
:10168000B0E0E5E5F0E0808184608C930EC0A5E5D4
:10169000B0E0E5E5F0E08081877F8C93A5E5B0E0E0
:1016A000E5E5F0E0808184608C93ABE5B0E0EBE5AC
:1016B000F0E0808180688C9325C08A81282F30E0FB
:1016C0003C832B838B819C81009731F02B813C8163
:1016D0002130310549F00FC0A4E5B0E0E4E5F0E0C9
:1016E00080818F7B8C9307C0A4E5B0E0E4E5F0E057
:1016F000808180648C93ABE5B0E0EBE5F0E0808125
:1017000080628C932A960FB6F894DEBF0FBECDBFD1
:10171000CF91DF910895DF93CF9300D000D0CDB764
:10172000DEB789836A83E3E5F0E099818A81892BBA
:1017300080838981282F30E03C832B838B819C819F
:10174000009731F02B813C812830310581F01EC09B
:10175000A9E5B0E0E9E5F0E0808181608C93A9E53E
:10176000B0E0E9E5F0E080818D7F8C9324C0A9E5AD
:10177000B0E0E9E5F0E080818E7F8C93A9E5B0E0F0
:10178000E9E5F0E0808182608C9315C0A9E5B0E0C6
:10179000E9E5F0E080818E7F8C93A9E5B0E0E9E592
:1017A000F0E080818D7F8C93A3E5B0E0E3E5F0E08D
:1017B000808180628C930F900F900F900F90CF914B
:1017C000DF910895DF93CF930F92CDB7DEB7898372
:1017D000E2E5F0E0898180830F90CF91DF91089559
:1017E000DF93CF930F92CDB7DEB78983ECE5F0E0BE
:1017F000898180830F90CF91DF910895DF93CF93FC
:10180000CDB7DEB7E2E5F0E08081CF91DF910895BA
:10181000DF93CF9300D00F92CDB7DEB78983898154
:10182000282F30E03B832A838A819B81009731F007
:101830002A813B812130310549F00FC0AEE4B0E090
:10184000EEE4F0E0808180648C9307C0AEE4B0E009
:10185000EEE4F0E080818F7B8C930F900F900F90DF
:10186000CF91DF910895DF93CF93CDB7DEB7279760
:101870000FB6F894DEBF0FBECDBF89836A834B835A
:101880008981282F30E03F832E838E819F810097AE
:1018900031F02E813F812130310559F163C0EEE4F2
:1018A000F0E08A81808381E00E94080CAFE4B0E020
:1018B000EFE4F0E080818C93A9E5B0E0E9E5F0E0A9
:1018C000808184608C93A9E5B0E0E9E5F0E0808157
:1018D000877F8C93A9E5B0E0E9E5F0E080818F7E19
:1018E0008C93A9E5B0E0E9E5F0E0808180628C931B
:1018F00039C0A9E5B0E0E9E5F0E080818B7F8C9309
:10190000A9E5B0E0E9E5F0E08081877F8C93A9E567
:10191000B0E0E9E5F0E080818F7E8C93A9E5B0E04E
:10192000E9E5F0E080818F7D8C93EEE4F0E08A8140
:10193000886180838B81282F30E03D832C838C81CC
:101940009D81009731F02C813D812130310531F0AE
:1019500009C0EFE4F0E082E8808304C0EFE4F0E047
:1019600082E2808327960FB6F894DEBF0FBECDBF0C
:10197000CF91DF910895DF93CF9300D000D00F92E5
:10198000CDB7DEB789837B836A838981282F30E0D6
:101990003D832C838C819D81009731F02C813D818A
:1019A0002130310541F00DC0EAE4F0E08A819B81ED
:1019B0009183808306C0E8E4F0E08A819B81918373
:1019C00080830F900F900F900F900F90CF91DF9129
:1019D0000895DF93CF9300D0CDB7DEB79A83898384
:1019E000E6E4F0E089819A81918380830F900F90E3
:1019F000CF91DF910895DF93CF93CDB7DEB7E6E4C3
:101A0000F0E080819181CF91DF910895DF93CF93B2
:101A1000CDB7DEB7AAE2B0E0EAE2F0E08081806113
:101A20008C93AAE2B0E0EAE2F0E0808188608C93D7
:101A3000A0E4B0E0E0E4F0E0808180688C93AAE26A
:101A4000B0E0EAE2F0E080818B7F8C93A0E4B0E02C
:101A5000E0E4F0E0808184608C93A0E4B0E0E0E416
:101A6000F0E0808182608C93E9E2F0E083E38083A0
:101A7000CF91DF910895DF93CF930F92CDB7DEB76B
:101A80008983EBE2F0E08081829586958770882FCC
:101A900090E0817090700097A1F3ECE2F0E0898112
:101AA00080830F90CF91DF910895DF93CF93CDB7CF
:101AB000DEB7EBE2F0E080818823DCF7ECE2F0E0D7
:101AC0008081CF91DF910895DF93CF9300D00F9263
:101AD000CDB7DEB70E94060D0E94B70681E063E035
:101AE00041E00E94140782E06FEF0E941B0880E033
:101AF0000E94F00B88E462E00E948B0B80E00E9461
:101B0000C606CC01A0E0B0E0BC01CD010E944904B2
:101B1000DC01CB01BC01CD0120E030EC4FE754E407
:101B20000E941903DC01CB01BC01CD0120E030E0B3
:101B300040EA50E40E941F02DC01CB01BC01CD0150
:101B400020E030E048EC52E40E941F02DC01CB01AF
:101B5000BC01CD010E944900DC01CB0180936A01E8
:101B600090916A0182E0692F0E946A090E94550DD6
:101B70008093680180916801807C80936B018091E3
:101B800068018F738093690180916B018823D9F478
:101B900080916901282F30E03B832A838A819B81D1
:101BA000009739F02A813B812230310509F4A6CF14
:101BB00007C00E94550D898389810E94F00B9ECF3A
:101BC0000E94550D9BCF0E94550D98CF2F923F92AA
:101BD0004F925F926F927F928F929F92AF92BF923D
:101BE000CF92DF92EF92FF920F931F93CF93DF93E9
:101BF000CDB7DEB7CA1BDB0B0FB6F894DEBF0FBE46
:101C0000CDBF09942A88398848885F846E847D8492
:101C10008C849B84AA84B984C884DF80EE80FD8094
:101C20000C811B81AA81B981CE0FD11D0FB6F8940A
:0E1C3000DEBF0FBECDBFED010895F894FFCFCB
:101C3E000000000000000000000102020303030385
:101C4E00040404040404040405050505050505053E
:101C5E00050505050505050506060606060606061E
:101C6E000606060606060606060606060606060606
:101C7E0006060606060606060707070707070707EE
:101C8E0007070707070707070707070707070707D6
:101C9E0007070707070707070707070707070707C6
:101CAE0007070707070707070707070707070707B6
:101CBE00070707070707070708080808080808089E
:101CCE000808080808080808080808080808080886
:101CDE000808080808080808080808080808080876
:101CEE000808080808080808080808080808080866
:101CFE000808080808080808080808080808080856
:101D0E000808080808080808080808080808080845
:101D1E000808080808080808080808080808080835
:101D2E000808080808080808080808080808080825
:081D3E0008080808080808085D
:00000001FF
